:0400000037EF00F0E6
:1000080000C015F0030E0D6E0D2EFED781A01FD077
:1000180081A002D00000FCD71A0E0C6EF80E0D6EEF
:100028000D2EFED70C2EFCD700008080166A176AAA
:10003800000E175C02E18350165C08E2240E0D6E78
:100048000D2EFED70000164A172AF2D78090F2929A
:0600580015C000F01100CC
:10005E000900F5CFE6FF0006FBE10106F9E112000B
:10006E00166A176A926A806A010E936E816A946AA2
:10007E00826AFF0E956E966A846A0F0EC112F18C1B
:0A008E00F292F288F28EFFD7FFD73E
:020000040030CA
:0D000100220F0EFF0181FF0FC00FE00F4026
:00000001FF
