:0400000092EF04F087
:1000080000C016F001C015F0F2AA08D0F2A406D07C
:10001800480ED76EE50ED66E54DAF294F2A809D0DF
:10002800F2A207D0F1AC05D0CF6ACE6ACD80F292A9
:10003800F19CF2A86AD0F2A268D0F1BC66D0CECF0B
:1000480047F0000E486ECFCF01F0006A47500026F7
:100058004850012200C047F001C048F0EBD9BD0E5E
:10006800046E370E056E060E066E6A0E076ED5D83C
:1000780000C043F001C044F002C045F003C046F0A0
:10008800000E046E740E056E010E066E8D0E076E60
:10009800C4D800C033F001C034F002C035F003C04A
:1000A80036F000C04DF001C04EF002C04FF003C062
:1000B80050F0250E516E000E526E10DA8F0E046E3F
:1000C800C20E056E750E066E7A0E076E43C000F0FE
:1000D80044C001F045C002F046C003F044D9010E07
:1000E800D8B0000E006E00520EE0F3D90050010A9D
:1000F8000AE1250E4D6E000E4E6EF8DB170E4D6EA2
:10010800000E4E6EF3DBF292F18C16C000F015C0B3
:0401180001F01100E1
:08011C000AAE029E000E120063
:100124000B820BAE9CEF00F0036802680168006864
:080134000A360232FF0E120030
:0E013C00026A016A006A086A036A000E120075
:10014A000B840BAEB0EF00F0010E036E026A016A77
:0A015A00006A0A360232FF0E12009E
:100164005BC004F05CC005F004C002F005C003F0FD
:10017400044A052A5DC000F05EC001F05D4A5E2AB3
:1001840000C0E9FF01C0EAFF02C0E1FF03C0E2FFD3
:10019400EECFE6FF02C0E9FF03C0EAFFEE5201E042
:0C01A400E3D75BC000F05CC001F012006B
:1001B0000C6A0E6A0250D8A4F1EF00F001C002F000
:1001C00000C001F0006A0E860250D8A4F1EF00F0E2
:1001D00001C002F0016A0E960E880250D8B403EFF7
:1001E00001F00E50035ED8A4D8A008EF01F0D8901B
:1001F00002BE0DEF01F0003601360236032EF8EF95
:1002000000F008EF01F0010E0C6E98DF10EF01F026
:10021000020E0C6E9ADF10EF01F0040E0C6E7EDF02
:020220001200CA
:10022200086A096A000E0762036496EF01F0025041
:1002320006180A6E075003267E0ED8A027EF01F09B
:10024200035ED8B09AEF01F02BEF01F0035ED8A065
:100252009EEF01F0028E068E02C00EF001C00BF07E
:1002620000C00DF000500402F4CF0CF00150050262
:10027200F4CF00F0F3CF08F00402F3500C26F45050
:100282000822000E00220D500502F3500C26F450F5
:100292000822000E002202500402F3500826F450F5
:1002A200002202500502016A000E0122F3500026CC
:1002B200F45001220D500602F3500826F450002299
:1002C200026A000E012202220B500602F35000269F
:1002D200F4500122000E02220E500602F3500126B3
:1002E200F450022202BE7EEF01F0083600360136DB
:1002F20002360306D8B49EEF01F091EF01F0D880E8
:10030200800E08640030000E002201220222D8A0D2
:1003120091EF01F0023201320032034A9AEF01F00A
:100322000AAE029E000EA0EF01F0010E06DFA0EF62
:1003320001F0020EF6DEA0EF01F0040E05DF12005E
:0E034200ACB202D00000FCD75BC0ADFF1200D1
:10035000086A080E0C6E003408360450085ED8B0E7
:0E03600002D00826D89000360C2EF5D71200D9
:10036E000A6A0350D8A40A800750D8A40A820A50F9
:10037E00D8B41AEF02F0030AD8B4D3EF01F00AB0E2
:10038E00CEEF01F006AE18EF02F016EF02F002AE5D
:10039E0016EF02F018EF02F00250800B0A6E029E6A
:1003AE000650800B069E0A18D8B4E4EF01F00A50EE
:1003BE00D8B416EF02F018EF02F00750035CD8B471
:1003CE00EEEF01F0D8A00AEF02F010EF02F00650A7
:1003DE00025CD8B4F8EF01F0D8A00AEF02F010EFEB
:1003EE0002F00550015CD8B402EF02F0D8A00AEF7B
:1003FE0002F010EF02F00450005CD8B41AEF02F0D5
:10040E00D8B010EF02F00A52D8B418EF02F016EF7F
:10041E0002F00A52D8B416EF02F018EF02F0D880AC
:0E042E001200D8901200D880D884120012005C
:10043C000050086E0150006E016A026A036A0B6A72
:10044C000C6A960E036E0A6A00C001F008C000F038
:08045C00086A026AA7DE120023
:10046400420E3F6E030E406E5B0E416E000E426EF6
:10047400FF0E3B6EFF0E3C6E000E3D6E000E3E6E98
:10048400FF0E376EFF0E386E000E396E000E3A6E98
:10049400DA0E496E040E4A6E000E4B6E000E4C6E60
:1004A400AC8A900EAB6E948E949C9EAA03D0AECF71
:0604B40000F0FBD712006E
:1004BA000900F5CFE6FF0006FBE10106F9E11200AB
:1004CA008182060E0D6E0D2EFED70000819212005B
:0A04DA00000EACB2010E006E12001D
:1004E400596A5A6A4DC055F04EC056F04FC057F085
:1004F40050C058F05850FF0A08E15750FF0A05E170
:100504005650FF0A02E15550FF0A0CE151C05BF05E
:1005140052C05CF0210E5D6E000E5E6E21DE030E95
:10052400006EE5D1010E536E57AE0ED0800E5718F3
:10053400006E00C057F0532A51C0E1FF52C0E2FFE1
:100544002D0EE66E514A522A000E006E581808E12C
:100554000050571805E10050561802E15550000AA2
:100564000BE151C05BF052C05CF01F0E5D6E000EDB
:100574005E6EF6DD006ABBD15850FF0A08E15750A1
:10058400000A05E15650000A02E15550000A0CE148
:1005940051C05BF052C05CF01B0E5D6E000E5E6ECF
:1005A400DFDD53C000F0A3D1000E046E000E056E13
:1005B400000E066E7F0E076E55C000F056C001F0A7
:1005C40057C002F058C003F0D0DE010ED8B0000EC0
:1005D400006E00521BE055C000F056C001F057C039
:1005E40002F058C003F0000E046E000E056E200EDB
:1005F400066E820E076E13DE00C055F001C056F081
:1006040002C057F003C058F05A06CED7000E046E4D
:10061400000E056E200E066E820E076E55C000F0A9
:1006240056C001F057C002F058C003F09EDE000E21
:10063400D8B0010E006E00521BE055C000F056C049
:1006440001F057C002F058C003F0CD0E046ECC0E7A
:10065400056E4C0E066E7B0E076EE1DD00C055F094
:1006640001C056F002C057F003C058F05A2ACED742
:10067400FF0E5514086EFF0E5614096E7F0E5714A4
:100684000A6E000E58140B6E08C004F009C005F081
:100694000AC006F00BC007F004360490053606368F
:1006A4000736000E5514006E000E5614016E000E2F
:1006B4005714026EFF0E5814036E00C055F001C0AB
:1006C40056F002C057F003C058F004505510006EA5
:1006D40005505610016E06505710026E0750581000
:1006E400036E00C055F001C056F002C057F003C0BD
:1006F40058F07F0E585C006E00C054F0010E586E26
:1007040000C004F055C000F056C001F057C002F01C
:1007140058C003F0045007E000360090013602365A
:100724000336FF0FF8D700C055F001C056F002C0E1
:1007340057F003C058F051C0E1FF52C0E2FF5850D7
:10074400300FE66E514A522A800E5A18006E800EFF
:10075400010A005C08E3800E060A006E800E5A1837
:10076400005C01E30AD051C0E1FF52C0E2FF2E0E4B
:10077400E66E514A522A010E596E060E546E5450BA
:10078400000A54E0586A55C000F056C001F057C042
:1007940002F058C003F000360090013602360336EA
:1007A4000036009001360236033655500026565066
:1007B4000122575002225850032200C055F001C0B4
:1007C40056F002C057F003C058F055C000F056C0B0
:1007D40001F057C002F058C003F000360090013613
:1007E4000236033600C055F001C056F002C057F07F
:1007F40003C058F051C0E1FF52C0E2FF5850300F1F
:10080400E66E514A522A5950000A0EE15A065A50CD
:10081400000A0AE151C0E1FF52C0E2FF2E0EE66E6B
:10082400514A522A010E596E5406A9D7FF0E51247B
:10083400E96EFF0E5220EA6EEE50300A05E1010E19
:10084400515E000E525AF2D7FF0E5124E96EFF0E8C
:100854005220EA6EEE502E0A04E1010E515E000EA3
:10086400525A5A50000A3DE051C0E1FF52C0E2FF23
:10087400650EE66E514A522A800E5A18006E800E9A
:10088400000A005C0BE251C0E1FF52C0E2FF2D0EF2
:10089400E66E514A522A5A5000085A6E5AC054F011
:1008A4005A5009080EE20A0E046E54C000F04EDDE0
:1008B40051C0E1FF52C0E2FF0050300FE66E514AD2
:1008C400522A0A0E046E54C000F040DD08C000F045
:1008D40051C0E1FF52C0E2FF0050300FE66E514AB2
:1008E400522A51C0E1FF52C0E2FFE66A006A1200D8
:1008F400506A4DC0E9FF4EC0EAFFEECF4FF04F50B3
:10090400000A0DE04FC05BF01ADD502A50504D2410
:10091400E96E000E4E20EA6EEECF4FF0F0D71200D3
:10092400BCEC04F0010E936E946A050ED56E480E6D
:10093400D76EE50ED66E800ECD6EF18EF18CF292EE
:10094400F288F294F28AF28ED09E0D0EAF6EAC98BD
:10095400AC8AAC82AD6A829C330EAF6EAC8480DD0F
:06096400D58EFFD7FFD77E
:1009780010EE17F00E0E006E010E016E6A0EF66E86
:0E098800090EF76E000EF86E5DEC02F0120024
:04096A00454F4C00A9
:04096E00494E4600A8
:02097200300053
:040974004E614E0082
:020000040030CA
:0D000100220F0EFF0181FF0FC00FE00F4026
:00000001FF
