:040000009FEF01F07D
:1000080000C018F001C017F00CC016F00DC015F0B4
:100018009EAA1CD085D80050010A18E181D800504A
:10002800010A14E1210E3C6E000E3D6E190E3E6E63
:10003800000E3F6EFF0E406E08D9010E3C6E010E99
:100048003D6E210E3E6E000E3F6E6FD89E9A18C010
:1000580000F017C001F016C00CF015C00DF011002B
:100068000F0E0C6E470E0D6E0D2EFED70C2EFCD704
:0600780000000000120070
:06007E000000000012006A
:0A008400210E0D6E0D2EFED71200A6
:10008E0045BE02D0819E01D0818E45BC02D0819C9E
:10009E0001D0818C45BA02D0819A01D0818A45B8AF
:1000AE0002D0819801D0818833B002D0828001D0F5
:1000BE0082908282DDDF829245B602D0819E01D08F
:1000CE00818E45B402D0819C01D0818C45B202D084
:1000DE00819A01D0818A45B002D0819801D0818861
:1000EE0033B002D0828001D082908282C1DF8292B0
:0C00FE0033A002D0B2DF01D0BEDF120040
:10010A00AECF01F0ABA202D0AB98AB8801C000F031
:02011A001200D1
:0C011C00339044C045F0B5DF3380120082
:0A012800000E9EBA010E006E1200D8
:100132000FD0800E3C6E19D0C00E3C6E16D0940EBD
:100142003C6E13D0D40E3C6E10D0800E3C6E0DD09F
:100152003C50010AEEE03C50020AEEE03C50030A39
:10016200EEE03C50040AEEE0F0D73D04006E3C5055
:10017200002600C03CF000C045F088DF3390406AA2
:1001820040503E24E96E000E3F20EA6EEE520BE034
:1001920040503E24E96E000E3F20EA6EEECF44F05E
:0A01A200BCDF402AEDD733801200C5
:1001AC00949294909398939A939C939E829282901B
:1001BC00819E819C819A819851DF50DF4FDF818A2B
:1001CC008188828256DF829249DF828252DF82925C
:1001DC0045DF82824EDF829241DF8198828249DF45
:1001EC0082923CDF828245DF8292819A818E82826A
:1001FC0040DF829233DF819E818882823ADF829255
:10020C008198828236DF829229DF828232DF82926B
:10021C00818882822EDF829221DF8198828229DF7F
:10022C008292818E818C818A8188828222DF829265
:06023C0015DF3380120003
:100242000900F5CFE6FF0006FBE10106F9E1120025
:10025200426A436A405241E04050FF0AD8A4400635
:1002620062DF0050000A01E1FBD74EDF00C041F01F
:1002720042503C24E16E000E3D20E26E00C0E6FFDB
:10028200422A43503E24E96E000E3F20EA6EEE50B1
:10029200411802E1432A09D0436A3EC0E9FF3FC048
:1002A200EAFFEE504118D8B4432A43503E24E96E87
:1002B200000E3F20EA6EEE50000A0EE14350425C0F
:1002C200006E016A000E015A00503C24E16E01509A
:1002D2003D20E26EE66A06D0BDD73CC0E1FF3DC0DC
:0602E200E2FFE66A1200D3
:1002E800FF0E346EFF0E356EFF0E366EFF0E376E44
:1002F8000A0E386E010E396E000E3A6E000E3B6E15
:10030800280E2F6E010E306E000E316E000E326E0A
:10031800FF0E1D6EFF0E1E6E000E1F6E000E206E6D
:10032800AC8A900EAB6E948E949C9EAA03D0AECFEE
:0603380000F0FBD71200EB
:10033E00450E196E4F0E1A6E4C0E1B6E1C6A2FDF79
:10034E00B886B06ACF0EAF6EAC84C7DFAB8AD09ED4
:0C035E009E9A9D8AF28CF28EFFD7FFD78A
:020000040030CA
:0E000000000C1F1EFF8381FF0FC00FE00F409A
:00000001FF
